:020000040800F2
:100000000000032069060008BD050008C9050008B6
:10001000CF050008D5050008DB050008000000003A
:10002000000000000000000000000000E1050008E2
:10003000ED05000800000000F905000805060008AD
:10004000B9060008B9060008B9060008B906000894
:10005000B9060008B9060008B9060008B906000884
:10006000B9060008B9060008B9060008B906000874
:10007000B9060008B9060008B9060008B906000864
:10008000B9060008B9060008B9060008B906000854
:10009000B9060008B9060008B9060008B906000844
:1000A000B9060008B9060008B9060008B906000834
:1000B000B9060008B9060008B9060008B906000824
:1000C000B9060008B9060008B9060008B906000814
:1000D000B90600083D060008B9060008B906000880
:1000E00011060008B9060008B9060008B90600089C
:1000F000B9060008B9060008B9060008B9060008E4
:10010000B9060008B9060008B9060008B9060008D3
:10011000B9060008B9060008B9060008B9060008C3
:10012000B9060008B9060008B9060008B9060008B3
:10013000B9060008B9060008B9060008B9060008A3
:10014000B9060008B9060008B9060008B906000893
:10015000B9060008B9060008B9060008B906000883
:10016000B9060008B9060008B9060008B906000873
:10017000B9060008B9060008B9060008000000002A
:10018000B9060008B9060008B9060008B906000853
:10019000B9060008B9060008B9060008B906000843
:0C01A000B9060008B9060008B9060008FE
:1001AC0010B5054C237833B9044B13B10448AFF3A5
:1001BC0000800123237010BD3C04002000000000CF
:1001CC003013000808B5034B1BB103490348AFF3C8
:1001DC00008008BD0000000040040020301300081F
:1001EC0080B582B000AF4FF4A06000F023FB054B4C
:1001FC001B687B603B1D184600F02EFB00BF0837C8
:10020C00BD4680BD4813000880B582B000AF012107
:10021C00042000F0CFFD074A3B4692E8030083E838
:10022C0003003B461946044800F012FC00BF083797
:10023C00BD4680BD4C1300080008024080B582B05A
:10024C0000AF01214FF4804000F0D2FD084A3B463C
:10025C0092E8030083E803003B46184600F05EFB7F
:10026C000D21022000F0E2FD00BF0837BD4680BD25
:10027C005413000880B500AFFFF7B2FFFFF7C4FFBF
:10028C00FFF7DCFF00BF80BD80B58CB000AF012153
:10029C00802000F08FFD01214FF4807000F08AFD6A
:1002AC000121012000F086FD0121042000F082FDD7
:1002BC004FF40063BB62012387F82C30022387F8CC
:1002CC002D30002387F82E30012387F82F304FF480
:1002DC0080633B62012387F82430022387F82530A2
:1002EC00002387F82630012387F827304FF400636A
:1002FC00BB6101233B7702237B770123FB774FF410
:10030C0080533B6101233B7502237B750023BB7536
:10031C000123FB750123BB6000233B7302237B731A
:10032C004FF480533B6000233B7102237B7107F138
:10033C0028031946114800F08BFB07F120031946DE
:10034C000F4800F085FB07F1180319460C4800F024
:10035C007FFB07F110031946094800F079FB07F100
:10036C0008031946074800F073FB3B46194606483C
:10037C0000F06EFB00BF3037BD4680BD0020024050
:10038C00001C0240000002400008024080B500AF93
:10039C004FF40061094800F0F7FB4FF48061084806
:1003AC0000F0E4FB4FF40061054800F0DFFB4FF474
:1003BC008051034800F0DAFB00BF80BD00200240F2
:1003CC00001C024080B483B000AF03463960FB715F
:1003DC0097F90730002B0BDA3B68DAB20C49FB7942
:1003EC0003F00F03043B1201D2B20B441A7609E05E
:1003FC003B68DAB2074997F907301201D2B20B44C5
:10040C0083F8002300BF0C37BD4680BC704700BF8B
:10041C0000ED00E000E100E080B582B000AF786054
:10042C007B68013BB3F1807F01D301230FE00A4AC3
:10043C007B68013B53600F214FF0FF30FFF7C2FF89
:10044C00054B00229A60044B07221A6000231846C1
:10045C000837BD4680BD00BF10E000E080B500AF9E
:10046C000248FFF7D9FF00BF80BD00BF20BF0200CC
:10047C0080B400AF044B1B68013B034A136000BF00
:10048C00BD4680BC704700BF5804002080B582B0C8
:10049C0000AF4FF4A06000F0CDF9054B1B687B60FA
:1004AC003B1D184600F0D8F900BF0837BD4680BD8B
:1004BC005C13000880B584B000AF0121012000F06E
:1004CC0079FC134A07F1080392E8030083E8030060
:1004DC00104A3B4692E8030083E8030007F1080347
:1004EC0019460D4800F0B4FA3B4619460A4800F08C
:1004FC00AFFA07220921084800F065FB07220A2100
:10050C00054800F060FB00BF1037BD4680BD00BF42
:10051C0060130008681300080000024090B585B015
:10052C0000AF0121102000F063FC0C4B3C460FCBBC
:10053C0084E80F003B461946094800F0B7FC01213E
:10054C00074800F06DFD012240F22551044800F0EF
:10055C0097FD00BF1437BD4690BD00BF7013000857
:10056C000010014080B500AFFFF790FFFFF7A2FF2E
:10057C00FFF7D4FF00BF80BD90B587B000AFFFF789
:10058C006DFFFFF777FEFFF77FFEFFF7FFFEFFF72C
:10059C00E9FF064B3C460FCB07C4238007F10E0343
:1005AC0000221A609A800023FB82FEE78013000869
:1005BC0080B400AF00BFBD4680BC704780B400AFB4
:1005CC00FEE780B400AFFEE780B400AFFEE780B476
:1005DC0000AFFEE780B400AF00BFBD4680BC7047E3
:1005EC0080B400AF00BFBD4680BC704780B400AF84
:1005FC0000BFBD4680BC704780B500AFFFF738FF29
:10060C0000BF80BD80B500AF4FF4005000F0F8F98A
:10061C000346012B08D14FF40061044800F0C2FAE4
:10062C004FF4005000F006FA00BF80BD001C0240E1
:10063C0080B500AF2021084800F069FD0346012B6E
:10064C0007D16121044800F00AFD2021024800F086
:10065C00B8FD00BF80BD00BF00100140DFF834D0F2
:10066C00002103E00C4B5B58435004310B480C4BFE
:10067C0042189A42F6D30B4A02E0002342F8043B9C
:10068C00094B9A42F9D300F013F800F0B7FDFFF7CD
:10069C0073FF704700000320A41300080000002023
:1006AC003C0400203C04002060040020FEE7000015
:1006BC0080B500AF124B1B68114A43F00103136065
:1006CC000F4B00229A600E4B1B680D4A23F084736B
:1006DC0023F4803313600A4B0A4A5A60084B1B6898
:1006EC00074A23F480231360054B0022DA6000F0E4
:1006FC000DF8054B4FF000629A6000BF80BD00BF43
:10070C00003802401030002400ED00E080B483B0CB
:10071C0000AF00237B6000233B60424B1B68414AC7
:10072C0043F4803313603F4B1B6803F400333B608E
:10073C007B6801337B603B68002B03D17B68B3F58E
:10074C00A04FF0D1374B1B6803F40033002B02D0C1
:10075C0001233B6001E000233B603B68012B5CD133
:10076C00304B1B6C2F4A43F0805313642E4B1B6889
:10077C002D4A43F4404313602A4B2A4A9B689360EA
:10078C00284B9B68274A43F400439360254B9B6896
:10079C00244A43F4A0539360224B244A5A60214BC1
:1007AC001B68204A43F08073136000BF1D4B1B680D
:1007BC0003F00073002BF9D01B4B1B681A4A43F44F
:1007CC008033136000BF184B5B6803F48033002B3D
:1007DC00F9D0154B1B68144A43F40033136000BF67
:1007EC00114B5B6803F40033002BF9D0104B40F233
:1007FC0005721A600B4B9B680A4A23F00303936043
:10080C00084B9B68074A43F00203936000BF054BFB
:10081C009B6803F00C03082BF9D100BF0C37BD46C5
:10082C0080BC70470038024000700040195A4007E5
:10083C00003C024080B483B000AF7860054A7B680E
:10084C0043F0BF6343F40033D36000BF0C37BD46A5
:10085C0080BC704700ED00E080B485B000AF7860DC
:10086C000023FB730023BB730F237B737B68DB7844
:10087C00002B39D0274BDB68DB431B0ADBB203F0C0
:10088C000703FB73FB7BC3F10403BB737A7BFB7B1A
:10089C0042FA03F37B737B685B781A46BB7B02FAE4
:1008AC0003F3FB737B689A787B7B1340DAB2FB7B98
:1008BC001343FB73FB7B1B01FB73174A7B681B7891
:1008CC001344FA7B83F800237B681B7803F01F0327
:1008DC0011497A6812785209D2B21046012202FAF2
:1008EC0003F341F820300FE07B681B7803F01F0303
:1008FC0009497A6812785209D2B2104601229A40FC
:10090C0000F1200341F8232000BF1437BD4680BC02
:10091C00704700BF00ED00E000E100E080B485B05E
:10092C0000AF78600023FB60344BFB607B689B79E5
:10093C00002B4FD0314B1A687B681B68DB432F4967
:10094C0013400B602D4B5A687B681B68DB432B49AB
:10095C0013404B607B681B791A46FB681344FB60A1
:10096C00FB6819687B681A68FB680A431A60234B9A
:10097C009A687B681B68DB43204913408B601F4BD4
:10098C00DA687B681B68DB431C491340CB607B68CF
:10099C005B79102B0ED1194B9A687B681B68174931
:1009AC0013438B60154BDA687B681B681349134340
:1009BC00CB601DE0114BFB607B685B791A46FB68D2
:1009CC001344FB60FB6819687B681A68FB680A4370
:1009DC001A600DE07B681B791A46FB681344FB60B8
:1009EC00FB6819687B681B68DA43FB680A401A606D
:1009FC0000BF1437BD4680BC704700BF003C0140AF
:100A0C0080B485B000AF78600023FB73084B5A6943
:100A1C007B681340002B02D00123FB7301E0002301
:100A2C00FB73FB7B18461437BD4680BC704700BF78
:100A3C00003C014080B483B000AF7860034A7B680F
:100A4C00536100BF0C37BD4680BC7047003C014071
:100A5C0080B487B000AF7860396000237B610023DD
:100A6C003B610023FB6000237B6176E001227B6904
:100A7C0002FA03F33B613B681B683A691340FB6065
:100A8C00FA683B699A4265D17B681A687B695B009E
:100A9C00032101FA03F3DB431A407B681A607B687D
:100AAC001A683B681B7919467B695B0001FA03F3F2
:100ABC001A437B681A603B681B79012B03D03B6897
:100ACC001B79022B2ED17B689A687B695B00032112
:100ADC0001FA03F3DB431A407B689A607B689A68DF
:100AEC003B685B7919467B695B0001FA03F31A4397
:100AFC007B689A607B685A687B699BB219460123B4
:100B0C008B40DB431A407B685A607B685B683A68B1
:100B1C00927911467A6992B201FA02F292B21A43B0
:100B2C007B685A607B68DA687B699BB25B00032147
:100B3C0001FA03F3DB431A407B68DA607B68DA68FE
:100B4C003B68DB7919467B695B0001FA03F31A43B6
:100B5C007B68DA607B6901337B617B690F2B85D9FC
:100B6C0000BF00BF1C37BD4680BC704780B483B04B
:100B7C0000AF78600B467B807B687A881A8300BF55
:100B8C000C37BD4680BC704780B483B000AF786032
:100B9C000B467B807B687A885A8300BF0C37BD4636
:100BAC0080BC704780B483B000AF78600B467B800C
:100BBC007B685A697B885A407B685A6100BF0C3746
:100BCC00BD4680BC704780B485B000AF78600B46E2
:100BDC007B8013467B700023FB600023BB607A781C
:100BEC007B8803F007039B0002FA03F3FB607B880E
:100BFC00DB089BB21A467B68083253F822207B88AC
:100C0C0003F007039B000F2101FA03F3DB43798800
:100C1C00C90889B2084602EA03017B6800F10802A0
:100C2C0043F822107B88DB089BB21A467B6808329B
:100C3C0053F82230FA681343BB607B88DB089BB205
:100C4C001A467B680832B96843F8221000BF143783
:100C5C00BD4680BC7047000080B489B000AF78609E
:100C6C000023BB6100237B610023FB6102233B61FA
:100C7C000023FB600223BB604A4B9B6803F00C0310
:100C8C00BB61BB69082B11D0BB69082B44D8BB696D
:100C9C00002B03D0BB69042B04D03DE07B68424A97
:100CAC001A603DE07B68414A1A6039E03D4B5B6855
:100CBC009B0D03F00103FB603A4B5B6803F03F03B1
:100CCC00BB60FB68002B0CD0384ABB68B2FBF3F35B
:100CDC00344A52689209C2F3080202FB03F3FB6127
:100CEC000BE0314ABB68B2FBF3F32E4A526892090F
:100CFC00C2F3080202FB03F3FB612A4B5B681B0C7B
:100D0C0003F0030301335B003B61FA693B69B2FBFF
:100D1C00F3F27B681A6003E07B68234A1A6000BF19
:100D2C00204B9B6803F0F003BB61BB691B09BB61E3
:100D3C001F4ABB6913441B78DBB27B617B681A6862
:100D4C007B69DA407B685A60164B9B6803F4E0536E
:100D5C00BB61BB699B0ABB61154ABB6913441B7819
:100D6C00DBB27B617B685A687B69DA407B689A608E
:100D7C000C4B9B6803F46043BB61BB695B0BBB61B1
:100D8C000B4ABB6913441B78DBB27B617B685A68E6
:100D9C007B69DA407B68DA6000BF2437BD4680BCD3
:100DAC00704700BF003802400024F40040787D01F9
:100DBC000000002080B483B000AF78600B46FB705D
:100DCC00FB78002B06D0094B1A6B08497B68134340
:100DDC000B6306E0054B1A6B7B68DB43034913403E
:100DEC000B6300BF0C37BD4680BC70470038024017
:100DFC0080B483B000AF78600B46FB70FB78002B9F
:100E0C0006D0094B5A6C08497B6813434B6406E0C7
:100E1C00054B5A6C7B68DB43034913404B6400BFA2
:100E2C000C37BD4680BC70470038024080B485B09A
:100E3C0000AF03460A46FB711346BB710023FB60EF
:100E4C00BB7903F003039B000F2202FA03F3FB6050
:100E5C00154ABB799B08DBB2023352F82320FB689E
:100E6C00DB431148B9798908C9B21A408B1C40F888
:100E7C0023200D4ABB799B08DBB2023352F82320A6
:100E8C00F979BB7903F003039B0001FA03F30648DD
:100E9C00B9798908C9B21A438B1C40F8232000BFCA
:100EAC001437BD4680BC70470038014080B58AB00D
:100EBC0000AF7860396000237B6200233B62002323
:100ECC00FB610023BB617B681B8A9BB27B627B6AE4
:100EDC0023F440537B623B68DB881A467B6A1343DE
:100EEC007B627B6A9AB27B681A827B689B899BB215
:100EFC007B627B6A23F4B05323F00C037B623B6868
:100F0C009A883B681B8913439AB23B685B891343ED
:100F1C009BB21A467B6A13437B627B6A9AB27B68EC
:100F2C009A817B689B8A9BB27B627B6A23F44073B9
:100F3C007B623B689B891A467B6A13437B627B6AA4
:100F4C009AB27B689A8207F108031846FFF784FE71
:100F5C007B68304A934203D07B682F4A934202D17C
:100F6C007B693B6201E03B693B627B689B899BB27E
:100F7C001BB2002B0CDA3A6A13469B0013449A00FE
:100F8C001A443B681B685B00B2FBF3F3FB610BE09C
:100F9C003A6A13469B0013449A001A443B681B6838
:100FAC009B00B2FBF3F3FB61FB691C4AA2FB03231E
:100FBC005B091B017B627B6A1B09642202FB03F346
:100FCC00FA69D31ABB617B689B899BB21BB2002B5D
:100FDC000CDABB69DB003233104AA2FB03235B093A
:100FEC0003F007037A6A13437B620BE0BB691B01B6
:100FFC0032330A4AA2FB03235B0903F00F037A6A1C
:10100C0013437B627B6A9AB27B681A8100BF2837D4
:10101C00BD4680BD00100140001401401F85EB51FE
:10102C0080B483B000AF78600B46FB70FB78002B6C
:10103C0008D07B689B899BB243F400539AB27B68BF
:10104C009A8107E07B689B899BB223F400539AB288
:10105C007B689A8100BF0C37BD4680BC704780B45A
:10106C0083B000AF78600B467B807B88C3F30803AA
:10107C009AB27B689A8000BF0C37BD4680BC704723
:10108C0080B487B000AF78600B467B8013467B70D2
:10109C0000233B610023FB600023BB6000237B61CA
:1010AC007B687B617B88DBB25B09DBB23B617B8855
:1010BC0003F01F03FB600122FB6802FA03F3BB6021
:1010CC003B69012B03D17B690C337B6109E03B69E4
:1010DC00022B03D17B6910337B6102E07B691433F3
:1010EC007B617B78002B06D07B6919687B69BA68B9
:1010FC000A431A6006E07B691968BB68DA437B69AE
:10110C000A401A6000BF1C37BD4680BC704780B4D3
:10111C0087B000AF78600B467B800023FB60002318
:10112C007B610023BB600023FB747B88DBB25B0913
:10113C00DBB2BB607B8803F01F037B6101227B6900
:10114C0002FA03F37B61BB68012B07D17B689B8997
:10115C009BB21A467B6913407B6111E0BB68022B82
:10116C0007D17B681B8A9BB21A467B6913407B6153
:10117C0006E07B689B8A9BB21A467B6913407B61B5
:10118C007B881B0A9BB2FB600122FB6802FA03F30B
:10119C00FB607B681B889BB21A46FB681340FB60A4
:1011AC007B69002B05D0FB68002B02D00123FB745C
:1011BC0001E00023FB74FB7C18461C37BD4680BC49
:1011CC00704780B485B000AF78600B467B800023FD
:1011DC00FB810023BB817B881B0AFB81FB890122DD
:1011EC0002FA03F3BB81BB89DB439AB27B681A809A
:1011FC0000BF1437BD4680BC7047000070B50D4E63
:10120C000D4D761BB61006D0002455F8043B013466
:10121C009847A642F9D1094E094D761B00F082F889
:10122C00B61006D0002455F8043B01349847A6426A
:10123C00F9D170BD9813000898130008A01300088A
:10124C0098130008024B13B1024800F005B8704720
:10125C000000000071120008002301461A461846CF
:10126C0000F01AB838B5084B084D5B1B9C1007D022
:10127C00043B1D44013C55F804399847002CF9D126
:10128C00BDE8384000F054B8A4130008A0130008BF
:10129C00704700BF704700BF2DE9F047DFF87CA016
:1012AC000646DAF8000098460F469146FFF7F0FF25
:1012BC001B4B1B68D3F8484124B365681F2D26DCF3
:1012CC005EB96B1C0235DAF80000636044F82570D7
:1012DC00FFF7E0FF0020BDE8F08704EB8501012358
:1012EC00C1F88890D4F88821AB401A43022EC4F878
:1012FC008821C1F80881E4D1D4F88C211343C4F8B7
:10130C008C31DEE703F5A674C3F84841D5E7DAF86B
:10131C000000FFF7BFFF4FF0FF30DCE73804002080
:10132C0094130008F8B500BFF8BC08BC9E46704783
:0C133C00F8B500BFF8BC08BC9E46704726
:101348002800000100200000000200020020000028
:101358000010010025000001000200000203000146
:10136800000400000203000100C2010000000000A8
:1013780000000C000000000048656C6C6F20576F7F
:10138800726C64210A0000000000000010000020B8
:0813980051120008D101000808
:0413A000AD01000893
:1013A4000000000001020304010203040607080907
:1013B40000000000FC02002064030020CC03002095
:1013C4000000000000000000000000000000000019
:1013D4000000000000000000000000000000000009
:1013E40000000000000000000000000000000000F9
:1013F40000000000000000000000000000000000E9
:1014040000000000000000000000000000000000D8
:1014140000000000000000000000000000000000C8
:1014240000000000000000000000000000000000B8
:1014340000000000000000000000000000000000A8
:101444000000000000000000000000000000000098
:101454000000000000000000010000000000000087
:101464000E33CDAB34126DE6ECDE05000B0000004C
:101474000000000000000000000000000000000068
:101484000000000000000000000000000000000058
:101494000000000000000000000000000000000048
:1014A4000000000000000000000000000000000038
:0C17D40000000000000000005C04002089
:040000050800066980
:00000001FF
